:020000040800F2
:10000000C8080020D50100088F110008530A000815
:100010008B110008A7070008E31D0008000000007E
:10002000000000000000000000000000FD130008B8
:10003000AB07000800000000E512000811150008D9
:10004000EF010008EF010008EF010008EF010008D0
:10005000EF010008EF010008EF010008EF010008C0
:10006000EF010008EF010008EF010008EF010008B0
:10007000EF010008EF010008EF010008EF010008A0
:10008000EF010008EF010008EF010008EF01000890
:10009000EF010008EF010008EF010008EF01000880
:1000A000EF010008EF010008EF010008EF01000870
:1000B000EF01000871160008EF010008EF010008C9
:1000C000EF010008EF010008EF010008EF01000850
:1000D000EF010008B91B0008EF010008EF0100085C
:1000E000EF010008EF010008EF010008EF01000830
:1000F000EF010008EF010008EF010008EF01000820
:10010000EF010008EF010008EF010008EF0100080F
:10011000EF010008EF010008EF010008EF010008FF
:10012000EF010008EF010008EF010008EF010008EF
:1001300000F002F800F03FF80AA090E8000C8244BA
:100140008344AAF10107DA4501D100F034F8AFF297
:10015000090EBAE80F0013F0010F18BFFB1A43F0A5
:10016000010318471C9400003C940000103A24BF7F
:1001700078C878C1FAD8520724BF30C830C144BF0C
:1001800004680C607047000000230024002500264E
:10019000103A28BF78C1FBD8520728BF30C148BFEA
:1001A0000B607047642900F06780002070471FB51E
:1001B0001FBD10B510BD00F0CBFA1146FFF7F7FFD9
:1001C00004F050FD00F0E9FA03B4FFF7F2FF03BCBE
:1001D00002F085FA0948804709480047FEE7FEE734
:1001E000FEE7FEE7FEE7FEE7FEE7FEE7FEE7FEE7E7
:1001F00004480549054A064B7047000015150008DC
:1002000031010008C8020020C8080020C8040020EE
:10021000C8040020704710B54C1084EA530404D57C
:100220004042C1F1000138BF491E1B4204D5524271
:10023000C3F1000338BF5B1E00F02EF914F0804FAD
:1002400004D04042C1F1000138BF491E14F0004FF4
:1002500004D05242C3F1000338BF5B1E10BD000042
:100260000FB4044910B503AA029800F0F1F910BCCC
:100270005DF814FB280000202DE9F041064600241B
:1002800010687529314616A510D0AFF300800028FC
:1002900002DA404213A507E031688A0701D512A5AA
:1002A00002E0490704D511A5012401E0AFF3008065
:1002B00000210A2206F1240709E0B0FBF2FCB0FBA2
:1002C000F2F302FB1C00303078541846491C002819
:1002D000F3D123462A463046BDE8F04100F05EB92E
:1002E000000000002D0000002B0000002000000096
:1002F0002DE9F05F894604464FF0000ADFF824B18B
:10030000FB44C0F820A02046E168884700287DD043
:10031000252806D0D4E901219047206A401C20629C
:10032000F1E700255F462046E16888472028064619
:1003300007DB312E05D2B81910F8200C08B105439F
:10034000F1E7A80701D525F00405C4F81CA0002793
:10035000C4F818A02A2E09D0304602F0B9F938B3F3
:1003600004EB8708303EC8F8186019E059F8041B00
:10037000204604EB87029161E1688847012F064619
:1003800018D1E069002820DA25F020051DE0D8F812
:10039000180000EB800006EB40003038C8F8180069
:1003A0002046E1688847064602F092F90028EED11F
:1003B000012F0AD02E2E08D12046E16888477F1CE5
:1003C0000646022F45F02005C4DBA069002803DAA9
:1003D000404245F00105A061E80701D025F0100575
:1003E000A6B1A6F14100192802D8203645F40065CF
:1003F0004A463146204625604D46FFF7D3FE60B1A0
:10040000012807D0ED1D25F0070000E007E000F10E
:10041000080978E705F1040975E730467AE7206AAC
:10042000BDE8F09FAA8F000040EA010310B59B07CA
:100430000FD1042A0DD310C808C9121F9C42F8D04E
:1004400020BA19BA884201D9012010BD4FF0FF30FF
:1004500010BD1AB1D30703D0521C07E0002010BD15
:1004600010F8013B11F8014B1B1B07D110F8013BA1
:1004700011F8014B1B1B01D1921EF1D1184610BD82
:1004800002F0FF0343EA032242EA024200F0F4B81A
:10049000704770477047704753EA020C00F069805C
:1004A0002DE9F04B4FF00006002B1FBFB3FA83F588
:1004B00003FA05F424FA05F65E4012BF1643B2FAB9
:1004C00082F502FA05F4C5F120051EBF22FA05FCEB
:1004D00044EA0C04203556EA044C4FEA144418BF91
:1004E000641C4FF000084FF00009904271EB030CC0
:1004F00039D3002919BFB1FA81F701FA07F6B0FA2A
:1005000080F700FA07F6C7F120071EBF20FA07FCA4
:1005100046EA0C062037B6FBF4FCA7EB0507103FB4
:1005200007F01F0BCBF120060CFA0BFB2CFA06F69A
:1005300044BFB3460026202FA4BF5E464FF0000BF9
:100540005BEA060C08BF4FF0010B19EB0B09ABFB84
:10055000027C48EB0608C01B06FB02CC0BFB03CC5D
:1005600071EB0C01C1E70B46024641464846BDE827
:10057000F08B13B54FF000004FF00001AFF3008097
:10058000BDE81C40704710B500F096F8006810BD3B
:1005900010B5044600F090F8046010BD2DE9F04756
:1005A0000D4699469246044600F1240801688806E3
:1005B00004D5E06921F01001216000E00120A8428B
:1005C00001DD471B00E00027A1697A1902EB090051
:1005D000081AA0612078C00602D42046AFF300803C
:1005E000002608E0D4E901211AF806009047206AA5
:1005F000401C761C20624E45F4DB2078C0060AD5EC
:100600002046AFF3008006E0D4E901213020904776
:10061000206A401C2062381EA7F10107F4DC07E0C5
:10062000D4E9012118F805009047206A401C206297
:10063000281EA5F10105F3DC2046AFF300802078E9
:10064000000602D50220BDE8F0870120FBE700008C
:10065000074B70B50D467B4400F037F8044628463A
:1006600000F046F810B14FF0FF3070BD204670BD6D
:10067000873D00004FF000020429C0F0128010F006
:10068000030C00F03B80CCF1040CBCF1020F18BF4E
:1006900000F8012BA8BF20F8022BA1EB0C0100F001
:1006A0002DB85FEAC17C24BF00F8012B00F8012BB4
:1006B00048BF00F8012B70470048704764020020D3
:1006C00001694A1C02610878704700B58FB0CDE916
:1006D00001310021059105497944CDE90310114606
:1006E0006846FFF705FE0FB000BD0000E5FFFFFF05
:1006F000007B00F0800070474FF0000200B5134609
:1007000094469646203922BFA0E80C50A0E80C5031
:10071000B1F12001BFF4F7AF090728BFA0E80C50E2
:1007200048BF0CC05DF804EB890028BF40F8042BDB
:1007300008BF704748BF20F8022B11F0804F18BF48
:1007400000F8012B70470000004870476402002049
:100750007546FFF7F9FFAE4605006946534620F09F
:100760000700854618B020B5FFF742FDBDE82040E0
:100770004FF000064FF000074FF000084FF0000B5D
:1007800021F00701AC46ACE8C009ACE8C009ACE810
:10079000C009ACE8C0098D4670470446AFF300803D
:1007A0002046FFF711FD00BFFEE7704708B50121A5
:1007B000082000F0A9FD0720ADF8000010208DF8FA
:1007C000030003208DF8020069461C4800F05EF823
:1007D00007211A4800F037F90420ADF80000102076
:1007E0008DF803006946154800F050F804211348BD
:1007F00000F029F90121042000F086FDB020ADF8B9
:10080000000010208DF8030003208DF802006946D7
:100810000B4800F03BF8B021094800F014F9102013
:10082000ADF800008DF803006946054800F02EF889
:100830001021034800F007F908BD0000000C01403A
:100840000008014008B51020ADF8000014208DF814
:10085000030003208DF802006946024800F016F8F4
:1008600008BD00000008014008B51020ADF80000E8
:1008700003208DF8020028208DF803006946024805
:1008800000F004F808BD0000000801402DE9F04127
:10089000024600250026002000230024002791F8AE
:1008A00003C00CF00F0591F803C00CF0100CBCF164
:1008B000000F03D091F802C04CEA050591F800C082
:1008C000BCF1000F31D0146800202BE04FF0010C78
:1008D0000CFA00F3B1F800C00CEA03069E4220D1E6
:1008E00083004FF00F0C0CFA03F7BC4305FA03FC2E
:1008F0004CEA040491F803C0BCF1280F06D14FF074
:10090000010C0CFA00FCC2F814C00AE091F803C014
:10091000BCF1480F05D14FF0010C0CFA00FCC2F8F5
:1009200010C0401C0828D1D31460B1F800C0BCF13D
:10093000FF0F34DD546800202EE000F1080C4FF06A
:10094000010808FA0CF3B1F800C00CEA03069E4255
:1009500021D183004FF00F0C0CFA03F7BC4305FACA
:1009600003FC4CEA040491F803C0BCF1280F05D144
:1009700000F1080C08FA0CF8C2F8148091F803C0D2
:10098000BCF1480F07D100F1080C4FF0010808FA3C
:100990000CF8C2F81080401C0828CED35460BDE883
:1009A000F0810000F0B50A46002300240021002554
:1009B00000F00046B6F1004F02D11D4EF16901E092
:1009C0001B4E7168C0F3034583B200F44016B6F5C0
:1009D000401F08D121F07061154E766826F07066D0
:1009E000134F7E6012E000F48016B6F5801F06D12A
:1009F000032606FA05F4A14341F0706106E0460DB6
:100A0000360103FA06F6B14341F0706122B1460D9A
:100A1000360103FA06F6314300F00046B6F1004F06
:100A200002D1034EF16101E0014E7160F0BD0000A2
:100A3000000001400246002093680B400BB10120EA
:100A400000E0002070474161704701617047C1605C
:100A5000704700BFFEE7000010B56848C0684FF25D
:100A6000FF02104040F470616448FFF7F0FF6348F4
:100A7000806800F4704010B94FF0FF3010BD0520C1
:100A800002F066FA5D48806800F4704010B94FF0DB
:100A9000FF30F3E75948C0684FF2FF02104040F4BE
:100AA00080715648FFF7D3FF5448806800F47040C7
:100AB000B0F5805F09D0B0F5005F08D0B0F5804F89
:100AC00007D0B0F5004F08D105E0002405E001246F
:100AD00003E0022401E0032400BF00BF00BF474839
:100AE000806800F470400028F9D14448C0684FF293
:100AF000FF02104040F400714048FFF7A8FF3F4854
:100B0000806800F47040B0F5805F09D0B0F5005FF8
:100B100008D0B0F5804F07D0B0F5004F08D105E000
:100B2000042405E0052403E0062401E0072400BFB7
:100B300000BF00BF3148806800F470400028F9D140
:100B40002E48C0684FF2FF02104040F480612B48ED
:100B5000FFF77DFF2948806800F47040B0F5805FA2
:100B600009D0B0F5005F08D0B0F5804F07D0B0F5E0
:100B7000004F08D105E0082405E0092403E00A2419
:100B800001E00B2400BF00BF00BF1C48806800F4D8
:100B900070400028F9D11948C0684FF2FF02104098
:100BA00040F400611548FFF752FF1448806800F4D4
:100BB0007040B0F5805F09D0B0F5005F08D0B0F5A7
:100BC000804F07D0B0F5004F08D105E00C2405E0B8
:100BD0000D2403E00E2401E00F2400BF00BF00BF7E
:100BE0000648806800F470400028F9D10448006885
:100BF000401C03490860204640E7000000200140F7
:100C0000A800002008B50121080200F07DFB4FF488
:100C10007060ADF8000010208DF8030003208DF8FF
:100C2000020069460848FFF731FE4FF47040ADF806
:100C3000000028208DF8030003208DF8020069468B
:100C40000148FFF723FE08BD0020014010B5002039
:100C50000E4908600E48006820F470400C49086096
:100C60000846006840F44050086000200949C1F877
:100C7000AC0100F011F801200449086000F00CF804
:100C800000200449C1F8A80110BD0000A88121423C
:100C9000040C01400080214210B5022002F07EF9D0
:100CA00010BD000008B50121082000F02DFB4FF415
:100CB0004060ADF8000010208DF8030003208DF88F
:100CC000020069460448FFF7E1FD4FF44061024825
:100CD000FFF7BBFE08BD0000000C014010B500206E
:100CE0000E4908600E48006820F470400C49086006
:100CF0000846006840F44050086001200949C1F8E6
:100D0000AC01FFF7C9FF012004490860FFF7C4FFE9
:100D100000200449C1F8A80110BD0000A8812142AB
:100D2000040C01400080214270B50546002416489D
:100D3000006820F47040144908600846006840F4D8
:100D400000400860002614E0002010490860FFF70A
:100D5000A3FF01200E49C1F8A8016006040E0B484C
:100D60007C38006808B1601CC4B2FFF795FF701CA6
:100D7000C6B2082EE8DB15B9FFF7B0FF01E0FFF7B8
:100D800065FF204670BD0000040C0140A88121428F
:100D90000080214270B504461248006820F470407B
:100DA000104908600846006840F440500860002080
:100DB0000D490860002512E0E0090B49091D086093
:100DC0006006040E01200949C1F8A801FFF764FF7D
:100DD000002005490860FFF75FFF681CC5B2082DB9
:100DE000EADB70BD040C0140A88121420080214251
:100DF00010B50E48006820F470400C4908600846A1
:100E0000006840F440500860012009490860094921
:100E1000C1F8A801FFF740FF002005490860FFF76F
:100E20003BFF00200349C1F8A80110BD040C01409C
:100E3000AC8121420080214210B50E48006820F4A8
:100E400070400C4908600846006840F44050086053
:100E50000020094908600949C1F8AC01FFF71CFFEF
:100E60000120054908600549C1F8AC01FFF714FFEE
:100E700010BD0000040C0140A881214200802142E5
:100E800010B500241448006820F47040124908602E
:100E90000846006840F40040086001200F490860DF
:100EA000FFF7FAFE01200E49C1F8A801FFF7F4FE92
:100EB00007E0601CC4B2FA2C03DDFFF7BDFF012080
:100EC00010BD0648803800680028F2D10349091F88
:100ED000086000BFF4E70000040C0140AC8121422F
:100EE0000080214238B50121084600F00DFA0121A9
:100EF000042000F009FA4FF40040ADF80000102083
:100F00008DF8030003208DF8020069462248FFF7A0
:100F1000BDFC01212148FFF745FD00202049086064
:100F2000FFF7C0FE80216B2000F0DDF8642002F0A6
:100F30000FF800216B2000F0D6F8032000F091F8A4
:100F4000002000F086F8322000F0B0F800213820B0
:100F500000F0C9F800216A2000F0C5F80021232024
:100F600000F0C1F88021372000F0BDF8752000F0B6
:100F700019F80446682C0BD101216B2000F0B3F85E
:100F800000216C2000F0AFF8322000F08FF801E073
:100F9000012038BD0020FCE70008014000023000BD
:100FA000BC01214270B50446FFF722FFD020FFF7B5
:100FB000F1FEFFF765FF2046FFF7ECFEFFF760FF4D
:100FC000FFF716FFD120FFF7E5FEFFF759FF0020DE
:100FD000FFF7AAFE0546FFF72FFF284670BD2DE953
:100FE000F04106460F4614461D46FFF701FF00215B
:100FF00041EA4601C8B2FFF7CDFEFFF741FF20B13D
:10100000FFF71AFF0120BDE8F0813846FFF7C2FE66
:10101000FFF736FFFFF7ECFE012101EB4601C8B2F6
:10102000FFF7B8FEFFF72CFF0DE0012C04D10020E4
:10103000FFF77AFE287003E00120FFF775FE2870A5
:10104000601EC4B26D1C002CEFD1FFF7F5FE00202E
:10105000D9E710B50446E006010E1C2000F043F865
:1010600010BD10B50446E006010E1B2000F03BF851
:1010700010BD70B504460025BC2C01DB012510E035
:10108000622C01DB02250CE02A2C01DB032508E0A1
:10109000142C01DB042504E00A2C01DB052500E00B
:1010A000062529461A2000F01EF870BD70B50446CA
:1010B000B4F57A7F01DD4FF47A74042C00DA04244D
:1010C0004FF47A7090FBF4F0401EC5B22946192007
:1010D00000F009F80546264604EBD671C1F34F002F
:1010E000FFF7C7FF70BD70B505460C46FFF780FEE1
:1010F000D020FFF74FFEFFF7C3FE18B1FFF79CFEAD
:10110000012070BD2846FFF745FEFFF7B9FE2046D7
:10111000FFF740FEFFF7B4FE18B1FFF78DFE012088
:10112000EFE7FFF789FE0020EBE72DE9F0410546E8
:101130000E4617469846FFF75BFE002141EA45013F
:10114000C8B2FFF727FEFFF79BFE20B1FFF774FE42
:101150000120BDE8F0813046FFF71CFEFFF790FE4E
:1011600000240CE018F80400FFF714FEFFF788FED7
:1011700018B1FFF761FE0120EBE7601CC4B2BC426E
:10118000F0DBFFF759FE0020E3E700BFFEE7704702
:1011900070B5002100230F22C47804B3154C2468D5
:1011A00004F4E064C4F5E064210AC1F10403CA4018
:1011B000447804FA03F184781440214309010E4C69
:1011C0000678A155047804F01F050124AC40057889
:1011D0006D11AD0005F1E025C5F8004109E0047886
:1011E00004F01F050124AC40044D0678761145F843
:1011F000264070BD0CED00E000E400E080E100E07E
:1012000002490143024A1160704700000000FA05DC
:101210000CED00E02DE9F04705460E461446314638
:10122000284607F033F9E060E168A06906F030FE77
:10123000A0610021606806F05BFF0DD0274861685F
:1012400006F094FE0746A16906F0EEFF04D223489B
:10125000616806F08BFEA0610021606806F048FF1F
:101260000DD01F48616806F081FE0746A16907F0AE
:10127000DBF804D21A48616806F078FEA061D4E970
:10128000030107F003F98146A16807F001F807465A
:10129000A169606806F0FCFF8146E168206806F0FD
:1012A000F7FF8246494606F0F3FD8046394606F0D0
:1012B000EFFDE061E06820610949E06906F0B4FFF4
:1012C00001D20748E0610549E06907F0ADF801D2B5
:1012D0000248E061E069BDE8F087000000401C467C
:1012E00000401CC67047000029B1064AD26902437B
:1012F000044BDA6104E0034AD2698243014BDA61AC
:10130000704700000010024029B1064A926902436A
:10131000044B9A6104E0034A92698243014B9A614B
:10132000704700000010024030B500210022002468
:1013300000232D4D6D6805F00C0121B1042905D065
:10134000082923D105E0294D056022E0274D0560DD
:101350001FE0254D6D6805F47012234D6D6805F48E
:101360008034022505EB92421CB9214D554305609E
:101370000BE01D4D6D6805F400351DB11C4D554346
:10138000056002E0194D5543056002E0174D056008
:1013900000BF00BF144D6D6805F0F0010909154D3F
:1013A0006B5C0568DD4045600F4D6D6805F4E061DC
:1013B000090A104D6B5C4568DD4085600A4D6D681B
:1013C00005F46051C90A0B4D6B5C4568DD40C56092
:1013D000054D6D6805F44041890B074D6B5CC56890
:1013E000B5FBF3F5056130BD0010024000127A0034
:1013F00000093D002E0000203E000020704710B57F
:1014000000F002F810BD00000CB500200190009023
:101410003348006840F480303149086000BF3048EC
:10142000006800F4003000900198401C0190009882
:1014300018B90198B0F5A06FF1D12948006800F4FF
:10144000003010B10120009001E0002000900098D1
:10145000012843D12348006840F01000214908606A
:101460000846006820F0030008600846006840F065
:10147000020008601A4840681949486008464068F8
:1014800048600846406840F480604860084640680C
:1014900020F47C1048600846406840F4E81048603A
:1014A0000846006840F08070086000BF0C48006883
:1014B00000F000700028F9D00948406820F00300CF
:1014C000074948600846406840F00200486000BF95
:1014D0000348406800F00C000828F9D10CBD00005A
:1014E0000010024000200240042808D14FF0E02103
:1014F000096941F004014FF0E022116107E04FF06B
:10150000E021096921F004014FF0E02211617047E8
:101510007047000010B51348006840F00100114901
:10152000086008464068104908400E49486008466F
:1015300000680E4908400B4908600846006820F41E
:10154000802008600846406820F4FE0048604FF4A0
:101550001F008860FFF753FF4FF0006004490860E8
:1015600010BD0000001002400000FFF8FFFFF6FE73
:1015700008ED00E030B589B005460C46012108466B
:10158000FFF7B2FE0120ADF8200018208DF82300EF
:1015900003208DF8220008A93448FFF777F90220CC
:1015A000ADF8200018208DF8230003208DF82200CC
:1015B00008A92E48FFF76AF90420ADF8200018208A
:1015C0008DF8230003208DF8220008A92748FFF793
:1015D0005DF90820ADF8200018208DF823000320C5
:1015E0008DF8220008A92148FFF750F9ADF81850EE
:1015F000ADF814400020ADF81A00ADF8160005A9AA
:101600004FF0804000F086FA7020ADF80400012011
:10161000ADF806000220ADF80C0001A9400700F06B
:1016200015F90821C80600F05DF901A94FF08040C6
:1016300000F062F90821C80600F0B0F901A94FF0E6
:10164000804000F0B9F90821C80600F005FA01A9A8
:101650004FF0804000F00AFA0821C80600F044FA72
:101660000121880700F0CBF809B030BD0008014027
:101670002DE9F0410121364800F0CDF8002865D071
:101680000121334800F0B8F8002032490880324880
:1016900001683248006806F0F9FE804606F0CCFB8F
:1016A00006462F4A2F4B05F0FFFE044605F00EFEBE
:1016B0002D4908602D4801682D48006806F0E6FEB7
:1016C000804606F0B9FB0646254A264B05F0ECFE9F
:1016D000044605F0FBFD27490860204800681E49C4
:1016E0000860234800682149086023A0FEF7B8FD80
:1016F000234801682348006806F0C8FE804606F0CB
:101700009BFB0646164A174B05F0CEFE044605F035
:10171000DDFD1D4908601D4801681D48006806F090
:10172000B5FE804606F088FB06460D4A0D4B05F0D7
:10173000BBFE044605F0CAFD164908601148006862
:101740000F4908601248006810490860BDE8F08140
:101750000004004050000020080000205400002039
:101760007B14AE47E17A943F5C0000200C0000201F
:101770005800002060000020D6D0B6CFBFAA0000DD
:10178000000000204400002064000020040000202D
:1017900048000020680000207FB505460C46012166
:1017A0000220FFF7A1FDADF80850ADF8044000207D
:1017B000ADF80A00ADF8060001A90E4800F0AAF93C
:1017C000012211460B4800F037F81D208DF800006B
:1017D00000208DF8010003208DF8020001208DF813
:1017E00003006846FFF7D4FC0121024800F007F827
:1017F0007FBD000000040040CA430282704721B14F
:10180000028842F00102028004E002884FF6FE7373
:101810001A400280704730B50246002000230024A1
:10182000158A05EA0103958905EA010413B10CB193
:10183000012000E0002030BD1AB183890B43838171
:1018400002E083898B4383817047000070B50024D8
:1018500000220023058C4FF6FE7635400584028C6D
:101860008388048B4FF68F752C40B51E2C400D8855
:101870002C43751E2A400D892A434D882A43144D56
:10188000A8420BD0134DA84208D0134DA84205D052
:10189000124DA84202D0124DA84213D14FF6F7754F
:1018A0002A404D892A434FF6FB752A408D882A43EA
:1018B0004FF6FF652B404FF6FF552B408D892B438C
:1018C000CD892B4383800483CD888586028470BDB7
:1018D000002C014000340140004001400044014020
:1018E000004801400A460021018B4FF6F77319406A
:1018F000114301837047000070B5002400220023CB
:10190000058C4FF6EF7635400584028C8388048B76
:1019100048F6FF752C404FF6FF452C400D884FF6DA
:10192000FF7606EA05252C434FF6DF752A400D8920
:1019300006EA05152A434D8806EA05152A43154D82
:10194000A84202D0144DA8421DD14FF67F752A40FF
:101950004D894FF6FF7606EA05152A434FF6BF7507
:101960002A408D8806EA05152A434FF6FF352B409D
:101970004FF2FF752B408D8906EA85052B43CD89F3
:1019800006EA85052B4383800483CD88058702847E
:1019900070BD0000002C0140003401400A460021C7
:1019A000018B4FF2FF7319404FF6FF7303EA0223D6
:1019B000194301837047000070B500240022002302
:1019C000058C4FF6FF6635400584028C8388848B36
:1019D0004FF68F752C404FF6FC752C400D882C432C
:1019E0004FF6FF552A400D894FF6FF7606EA05258A
:1019F0002A434D8806EA05252A43154DA84202D000
:101A0000144DA8421DD14FF2FF752A404D894FF663
:101A1000FF7606EA05252A434FF6FF352A408D88D2
:101A200006EA05252A434EF6FF752B404DF6FF7555
:101A30002B408D8906EA05152B43CD8906EA05154D
:101A40002B4383808483CD888587028470BD00000A
:101A5000002C0140003401400A460021818B4FF6E2
:101A6000F7731940114381837047000070B500225D
:101A700000230024058C4EF6FF7635400584038C48
:101A80008488828B48F6FF752A404FF6FF452A402E
:101A90000D884FF6FF7606EA05252A434DF6FF75B9
:101AA0002B400D8906EA05352B434D8806EA05359E
:101AB0002B430B4DA84202D00A4DA84208D14BF649
:101AC000FF752C408D894FF6FF7606EA85152C436D
:101AD00084808283CD88A0F84050038470BD0000CC
:101AE000002C0140003401400A460021818B4FF256
:101AF000FF7319404FF6FF7303EA022319438183F2
:101B00007047818670470187704781877047A0F8CA
:101B100040107047002202881D4B98420ED01D4B8A
:101B200098420BD0B0F1804F08D01B4B984205D0A3
:101B30001A4B984202D01A4B984204D14FF68F7339
:101B40001A404B881A43174B984207D0164B9842BD
:101B500004D04FF6FF431A40CB881A4302808B888B
:101B600083850B8803850A4B98420BD0094B98421A
:101B700008D00E4B984205D00D4B984202D00D4B29
:101B8000984201D10B7A03860123838270470000BB
:101B9000002C0140003401400004004000080040D7
:101BA000000C0040001000400014004000400140C4
:101BB000004401400048014010B540F225511D4845
:101BC00000F04AF810B31B4800F002F9C4B21A48FA
:101BD000008800F40040C8B91748008800F480402D
:101BE00060B10A2C03D000201349088020E012487D
:101BF000008840F400401049088019E00D2C06D1FF
:101C00000D48008840F480400B49088010E00A48E5
:101C10000088C0F30D0009490C5407480088401C97
:101C20000549088008460088C72801DD0020088093
:101C300010BD0000003801402C000020AC00002046
:101C400021B1828942F40052828104E082894DF6FA
:101C5000FF731A408281704770B50246002400234A
:101C60000025002040F66A16B14200D100BFC1F342
:101C7000421501F01F03012606FA03F3012D02D1DC
:101C80009689334006E0022D02D1168A334001E0E6
:101C9000968A33400C12012606FA04F41688344062
:101CA00013B10CB1012000E0002070BDF0B5034677
:101CB000002400260025002040F66A17B94200D112
:101CC00000BF1846C1F3421401F01F06012707FAAE
:101CD00006F5012C01D10C3004E0022C01D11030AA
:101CE00000E014301AB107682F43076002E007686C
:101CF000AF430760F0BD00002DE9F04786B0054610
:101D00000E460024A24600BFA1460027B08900B1BC
:101D100000BF2F462C8A4CF6FF700440F088044325
:101D20002C82AC894EF6F3100440B0883189084308
:101D3000718908430443AC81AC8A4FF6FF400440EC
:101D4000B0890443AC8201A8FFF7EEFA1F4887422E
:101D500002D1DDF810A001E0DDF80CA0A88900F4A4
:101D6000004040B10AEBCA0000EB0A10316849009C
:101D7000B0FBF1F807E00AEBCA0000EB0A1031688B
:101D80008900B0FBF1F86420B8FBF0F004012009F1
:101D9000642101FB1089A88900F4004040B1322081
:101DA00000EBC900B0FBF1F000F00700044308E0CD
:101DB000322000EB09106421B0FBF1F000F00F00BD
:101DC00004432C8106B0BDE8F087000000380140D4
:101DD00001468888C0F308007047C1F3080282807A
:101DE000704700BFFEE7490050EAC12018BF042039
:101DF0004A0D18BF40F0010040F2FF72B2EB515F94
:101E000008BF40F00200012808BF0520704700000D
:101E10002DE9F74F144694B00021C4E90211159939
:101E2000079121F00045C9498D4206DC1599C4E9A6
:101E3000000117B00020BDE8F08FC549DFF814A3FA
:101E4000A9423CDD0799C44E0029C44FC44A1599E4
:101E5000534619DD05F006FF554506D0C14AC24B71
:101E600005F000FFC4E900010AE04FF0D352BE4B79
:101E700005F0F8FE32463B4605F0F4FEC4E90001E9
:101E800017B00120BDE8F08F05F052FA554506D095
:101E9000B44AB54B05F04CFAC4E900010AE04FF032
:101EA000D352B14B05F044FA32463B4605F040FAB6
:101EB000C4E9000117B04FF0FF30BDE8F08FAB4927
:101EC000A942159978DB21F0004183468846A84A4B
:101ED000A84B05F0D7FC0022A74B05F029FA05F026
:101EE0003BFC099005F067FC06460F469C4A5346AA
:101EF00005F0C8FC43465A4605F0C2FD80468A46B6
:101F0000984A994B3046394605F0BCFC2A0D01250C
:101F10000B924246534605F0B3FD032DC4E9000180
:101F200039D00B98C1F30A51401A05EB451111390C
:101F3000814230DA9148C346784400EB0510CDF871
:101F40000CA00C90D0E900233046394605F09AFCED
:101F500002460B46049106905846039905F082FE0E
:101F600080468A4602460B465846039905F07AFE9B
:101F7000049B069A05F076FE83460C980391394639
:101F8000D0E90223304605F07DFC5A46039B05F05C
:101F900069FE6D1CBDE707980028A2BF099817B01D
:101FA000BDE8F08F616881F000416160099817B069
:101FB0004042BDE8F08FFFE784461598C1F3130156
:101FC000C0F30A50A0F2F5304FEA601800F01F0687
:101FD000C6F12000139000200690079041F4801E67
:101FE00005206D4676B1664A08EB00017A4452F846
:101FF000213002EB8101B3404A68139922FA01F1C2
:10200000194305E05F4908EB0002794451F82210BA
:10201000A1FB0E27A1FB0C131A449A4234BF0123E3
:10202000002303EB070A05EB8003D3E901B70F4454
:102030008F4234BF0121002193448B4411B1934559
:1020400002D903E0934501D2012100E00021C3E958
:1020500001B7514445F82010011EA0F10100C1DC78
:102060000298059F00F10050800F12900298DDE960
:102070000356800005F09FFB834628460D9105F02E
:10208000B1FB6FF01D0206F0A8FACDE90E01304653
:1020900005F0A8FB6FF03D0206F09FFA80468A46E5
:1020A000384605F09FFB6FF05D0206F096FA074692
:1020B00042465346119105F03BF9DDE90E2305F048
:1020C00037F95A460D9B05F033F900250E465A465E
:1020D00028460D9B05F0C6FDDDE90E2305F0C2FD87
:1020E0004246534605F0BEFD3A46119B05F0C8FC3A
:1020F000DFF898A0244A534605F0C4FB07468846FB
:10210000234A244B3146284605F0BCFB3A46434659
:1021100005F00EF9074688464FF0A842534631466F
:10212000284605F0AFFB3A46434605F001F9159AFB
:1021300012F0004F04D0129A81F0004152421292E4
:10214000C4E90001129817B0BDE8F08FFB21E93F08
:102150007CD90240FB21F93F7370032E8A19A33BFF
:10216000000040543163621A61B4D03DFB21394113
:1021700083C8C96D305FE43F0000E03FA4740000F5
:102180002074000002740000182D4454FB21F93D16
:102190003326A611460B113C2DE9FF4D21F00048D6
:1021A00007460C46B8F1795F08DA05F0D5FA002841
:1021B00001BF0020324904B0BDE8F08D3A46234605
:1021C0001046194605F05EFB054602462D480E46B0
:1021D0000B460621784400F05DF82A46334605F0A8
:1021E00051FBDDE9022382468B463846214605F045
:1021F00049FB04460F4652465B462846314605F0E9
:1022000041FB22463B4605F02DFD07468A464FF02E
:10221000FF322846314606F0E0F91B4A90450ADABB
:102220003A46534605F01EFD04B00022BDE8F04DCD
:10223000134B05F025BC154A4245A8BFA8F500156B
:102240004FF00004B8BF124D22462B4605F00AFDA0
:102250000646884622462B460020094905F002FD25
:1022600004460D463A4653463046414605F0FAFCD0
:1022700004B022462B46BDE8F04D05F001BC00003D
:102280000000F03FD07100003333D33F0000E93F3E
:102290000000D23F2DE9F0414F1E00EBC70104467C
:1022A000D1E9000115461E4637F006020DD02A4638
:1022B000334605F0E7FA7F1E04EBC703D3E900239A
:1022C00005F036F837F00602F1D1022F25D0042FA1
:1022D00013D0062F18BFBDE8F0812A46334605F01B
:1022E000D1FAD4E90A2305F023F82A46334605F04B
:1022F000C9FAD4E9082305F01BF82A46334605F04D
:10230000C1FAD4E9062305F013F82A46334605F04E
:10231000B9FAD4E9042305F00BF82A46334605F050
:10232000B1FAD4E9022305F003F82A46334605F052
:10233000A9FAD4E90023BDE8F04104F0F9BF000098
:102340002DE9FF4D054621F0004084B00C46B0F168
:10235000795F0BDA2846FFF746FD042808BF00F036
:10236000AFF9284608B02146BDE8F08D2A460B4655
:10237000104605F087FA06460F462A46234605F022
:1023800081FA804626488A4632463B4605217844F3
:10239000FFF780FF83461098029160B3214A224BD9
:1023A0004046514605F06EFACDE900015A464046D6
:1023B0005146029B05F066FA82468846DDE9060131
:1023C0004FF0FF3206F009F95246434605F04AFC49
:1023D00032463B4605F056FADDE9062305F042FC9D
:1023E000DDE9002305F03EFC08B02A462346BDE89F
:1023F000F04D05F045BB0B465A463046394605F0D0
:1024000041FA084A084B04F093FF4246534605F050
:1024100039FA08B02A462346BDE8F04D04F088BFDB
:1024200016710000495555555555C5BF2DE9F04D5C
:1024300004468CB0904821F00047164698460D4659
:102440000991874206DA2046294605F085F90028D9
:1024500000F0AE808948B8421CDC09980028BCBF57
:1024600085F0004588F00048854A864B204629467D
:1024700005F006FB04460D46324643468248834932
:1024800005F0F0FB22462B4604F052FF00260446DE
:102490000D46B04622462B461046194605F0F2F985
:1024A0008B46824602460B4605F0ECF90246089040
:1024B00077480B46009106217844FFF7EBFECDE903
:1024C0000310744806217844009B089AFFF7E2FE47
:1024D00052465B4605F0D6F9CDE9051052465B46FB
:1024E0002046294605F0CEF907910090DDE903105A
:1024F000DDE9053204F01CFF079B009A05F0C2F9E4
:102500003246434604F014FF52465B4605F0BAF9E2
:102510003246434604F00CFF80460E465E4A5F4B4F
:102520000799009805F0AEF94246334604F000FFE3
:1025300082468B4622462B4604F0FAFE80464F48E0
:102540000E46B84214985BDC05F035F90746424662
:102550003346059104F0ECFECDE9011042463346C6
:102560001046194605F08EF9DDE9013204F09CFFB2
:1025700052465B4605F076FB22462B4605F080FA74
:10258000012206F02AF83A46059B05F079FA04463E
:102590000D460998022101EAA070C0F1010005F082
:1025A0000AF90CB022462B46BDE8F04D05F06AB999
:1025B0001498401C384320430BD01498012812D0A3
:1025C0000CB022462B46BDE8F04D0020344904F003
:1025D0006BBF0CB025F000432246BDE8F04D002053
:1025E000304904F061BF20462946FFF7FCFB042870
:1025F00008BF00F065F820460CB02946BDE8F08D14
:10260000012802BF40460CB0BDE8F08D00270B4604
:102610003A462046294605F033FA52465B4605F015
:102620002FFA04460D464246334600201C4904F06A
:102630003BFF83463A4688463346104605F022F96A
:102640000022184B04F074FE06468A4622462B46AA
:102650003846414605F016F93246534604F068FE06
:102660005A46434605F00EF90CB03A464346BDE8DB
:10267000F04D04F05DBE00000000303E2894E53FC0
:10268000182D4454FB21E93F075C143326A6813CF6
:102690001470000036700000635555555555D53FF0
:1026A0000000F0BF0000F03F012205F096BF04F0EB
:1026B0003FBE002213461046114604F0F5BE00004E
:1026C000024A0020110705F088BF000001FDFFFF4E
:1026D00030380A2801D2012070470020704700BF1F
:1026E000704700002DE9FE4F06460F46002568465C
:1026F00001F084FE002442E056F8240057F824102C
:10270000A0EB010ABAF1000F01DB514601E0CAF16A
:102710000001084605F05CFD83464FF08F4105F04F
:1027200025FC80465DF82400002105F0E1FC16D070
:102730005DF82410404605F019FC82464FF07E51AA
:1027400005F0A4FE814629F0004A0F48416A504630
:1027500005F06AFE12D20120A04005430EE00A48AF
:10276000C169404605F060FD05D30748016A40464F
:1027700005F05AFE02D20120A0400543641C032C40
:10278000BADB2846BDE8FE8F908600082DE9F04DA3
:102790008D4F21F0004A86B005460C46BA452ADB2B
:1027A000AAEB070028430AD08848824501DC1AD1E9
:1027B000CDB106B02846BDE8F04DFFF775BF844A9D
:1027C000844B284605F05EF807460E46824A834B46
:1027D0002846214605F056F806B03A463346BDE88D
:1027E000F04D04F0A5BD0120FDF7D2FE06B0BDE816
:1027F000F04DFFF75EBF7A48824542DABAF1795F61
:102800000BDA2846FFF7EFFA042808BFFFF758FF56
:10281000284606B02146BDE8F08D2A460B461046F4
:1028200005F030F8834602466E480E460B460621F8
:102830007844FFF72FFD5A46334605F023F88046CB
:1028400069488A465A46334604217844FFF722FDF8
:102850005A46334605F016F800223B4604F068FD60
:1028600002460B464046514604F01EFE2A462346C9
:1028700005F008F806B02A462346BDE8F04D04F0FE
:1028800057BD284624F0004100223D463B4605F056
:10289000F7F84FF0FF3205F0A0FE06460246534817
:1028A0000F460B4606217844FFF7F4FC32463B46C0
:1028B00004F0E8FFCDE900014D4832463B460421D3
:1028C0007844FFF7E7FC32463B4604F0DBFF00228A
:1028D0002B4604F02DFD834602913046394604F024
:1028E00027F8804643480D46504517DCDDE90001D6
:1028F0005A46029B04F0D8FD42462B4604F0C2FF24
:1029000042462B4604F014FD012205F066FE304AD3
:10291000304B05F0A7F9304A304B4CE04FF0000A3D
:1029200052460B46404604F003FDCDE903105246E3
:102930002B461046194604F0A5FF32463B4605F0EB
:102940009FF8DDE9033204F0AFFD06460F46DDE9EE
:1029500000015A46029B04F0A7FD83460091012224
:102960003046394605F039FE194A1A4B05F088F809
:1029700006460F4601224046294605F02EFE5A46DD
:10298000009B04F07FFF32463B4605F06BF906469C
:102990000F4601225046294605F01FFE0E4DDFF876
:1029A00058802A46434605F06BF832463B4605F010
:1029B00067F82A46434605F063F8002CD8BF81F03B
:1029C000004106B0BDE8F08D0000F03F0000F07F50
:1029D000075C143326A6913C182D4454FB21F93F83
:1029E0000000E03F8C6A0000A26A0000166A000046
:1029F0002C6A00003333EF3FFB21E93F2DE9F84F0C
:102A000004460D4621F0004000917349814211DCDB
:102A10007249884201DC06D12CB120462946BDE826
:102A2000F84FFFF741BE6E48002DCCBF6D496E498F
:102A3000BDE8F88F6D49814211DD6D498142D8BFF3
:102A40004FF0FF366DDD20462946FFF7CCF904280C
:102A500008BFFFF735FE20462946BDE8F88F6549D7
:102A6000654F25F00045814233DD6449814219DD1F
:102A7000002632464FF080432046294604F058FC99
:102A800080468A4601222046294605F0A6FD0022FE
:102A90003B4605F0E7F84246534604F005FD044680
:102AA0000D463EE001260022BA463B462046294616
:102AB00004F03EFC80460F4600225346204629463D
:102AC00005F0D0F842463B4604F0EEFC04460D46C5
:102AD00027E04B4981421BDDDFF828A102260022B6
:102AE00053462046294604F0CDFE00223B4604F022
:102AF0001FFC80460F46002253462046294605F01B
:102B0000B1F842463B4604F0CFFC04460D4608E0CF
:102B1000032622462B4600203B4904F0C5FC044610
:102B20000D4622462B461046194604F0ABFE8B4656
:102B3000824602460B4604F0A5FE0746024633488D
:102B400088460B4606217844FFF7A4FB52465B46B5
:102B500004F098FE82462E488B463A4643460521AD
:102B60007844FFF797FB3A46434604F08BFE024653
:102B70000B46002E504659460CDA04F0D9FB22468B
:102B80002B4604F07FFE01B022462B46BDE8F04FF5
:102B900004F076BF04F0CCFB22462B4604F072FE14
:102BA0001C4A7A4402EBC603D3E9002305F05AF825
:102BB00022462B4605F056F8174A7A4402EBC60324
:102BC000D3E9002304F05CFF009A002AB8BF81F02B
:102BD0000041BDE8F88F0000000010440000F07FC5
:102BE000182D4454FB21F93FFB21F9BF0000DC3FC5
:102BF0000000203E0000F33F0000F03F0000E63FF1
:102C0000008003400000F83F0000F0BF2E68000085
:102C1000EC6700008A670000526700002DE9F04D64
:102C20009446CCF1000423F000464CEA0404524FD1
:102C300046EAD4749A46884621F00042BC4206D83F
:102C4000454240EA050442EAD474BC4204D9BDE8D6
:102C5000F04D6246FFF72BBDAAF14055A5F17F6507
:102C600055EA0C040BD0022404EAAA74434DDFF8A1
:102C700010E144EAD87452EA000B04D00CE0BDE83D
:102C8000F04DFFF7BBBE002C14BF012CBDE8F08D4A
:102C9000022C30D0032C32D056EA0C0B0AD0BE42A4
:102CA00020D1BA4209D126F0804622F08042334634
:102CB000114617E000291ADB25E0DFF8C8B0FB4415
:102CC000002C04BFDBE90001BDE8F08D012C02BF40
:102CD000DBE9000181F00041BDE8F08D022C0AD053
:102CE000032C0CD0BA4212D1B8F1000F0BDA2348F2
:102CF0002549BDE8F08D28462449BDE8F08D2846D9
:102D00007146BDE8F08D1D482149BDE8F08D921B4C
:102D100012153C2AC4BF19481D490EDCBAF1000F38
:102D2000BEBF12F13C0F0020014606DB624604F0F4
:102D3000BBFB21F00041FFF761FE002C08BFBDE89E
:102D4000F08D012C04BF81F00041BDE8F08D114AE7
:102D5000114B022C07D004F085FF2A46BDE8F04D48
:102D60000A4B04F07FBF04F07DFF2A46BDE8F04D1A
:102D7000064B04F085BE00000000F07F182D44547F
:102D8000FB2109C016670000FB21F9BFFB210940A8
:102D9000FB21F93F075C143326A6A13C70B5022144
:102DA0001248FDF750FE04211048FDF74EFE0024A6
:102DB00014E004F1B00004F09DF9002004F09AF949
:102DC000102004F097F9002504E0002004F0C6F973
:102DD000681CC5B2802DF8DB601CC4B2082CE8DB8F
:102DE00002210248FDF731FE70BD0000000C0140D9
:102DF00000B5244B21F0004287B09A42DCBF00228C
:102E0000134629DD204B9A4208D140B94FF001000A
:102E1000FDF7BEFBFFF74DFC07B000BD03DBFFF77E
:102E200043FC07B000BD02AAFEF7F2FF10F0030159
:102E300004BF0DF1080C9CE80F000DD00120012902
:102E40000ED0022914D00DF1080C00909CE80F0060
:102E5000FFF776FA07B000BDFFF79EF907B000BD97
:102E60000DF1080C00909CE80F00FFF769FA05E0EF
:102E70000DF1080C9CE80F00FFF78EF907B081F008
:102E8000004100BDFB21E93F0000F07F2DE9F0414A
:102E90000446E07800F0C006E07800F03F05607876
:102EA00000F0010098B1EF102846E91705EB5171C9
:102EB000C910A5EBC101491C01F0FF080B480068CF
:102EC00020B10A48414602683846904700BF607802
:102ED00000F0080030B10548406818B1B011034A4D
:102EE000516888470020BDE8F081000054020020AE
:102EF000002107E0002200E0521C41F27C539A427C
:102F0000FADB491C8142F5DB7047000010B56FF019
:102F10000400FEF7E9FA0A4800680A49B0FBF1F03C
:102F2000094908700846007800EB4001C1EBC01069
:102F30004FF6FF7101EAC0000449088010BD00008F
:102F40001000002000127A0024000020260000203B
:102F50000146114A12884A434FF0E0235A61002289
:102F60009A611A46126942F001021A6100BF4FF0DD
:102F7000E022106900F001021AB100F48032002A48
:102F8000F5D04FF0E022126922F001024FF0E02369
:102F90001A6100229A617047260000200146114AFA
:102FA00012784A434FF0E0235A6100229A611A4690
:102FB000126942F001021A6100BF4FF0E02210696D
:102FC00000F001021AB100F48032002AF5D04FF06F
:102FD000E022126922F001024FF0E0231A61002280
:102FE0009A617047240000202DE9F0478EB0824698
:102FF0000E4615460024A6E0285DB02836DB285D85
:10300000F72833DC601C285CA1282FDB285DB03852
:103010005E2148434F490860601C285C00F2AD20E7
:10302000096808444B490860084600684001086088
:1030300008460068C0F3074708460088C0F3072821
:10304000084690F80090202006AB4A464146009082
:10305000384601F05DFA06AA3146504600F07EF887
:10306000A01CC4B206F11000C6B26CE0285DA12815
:1030700035DB285DA32832DC601C285CA1282EDB10
:10308000285DA1385E21484332490860601C285CF5
:10309000A138096808442F490860084600684001C3
:1030A000086008460068C0F3074708460088C0F378
:1030B0000728084690F80090202006AB4A46414673
:1030C0000090384601F024FA06AA3146504600F036
:1030D00045F8A01CC4B206F11000C6B233E0285D6A
:1030E00020282EDB285D7E282BDC285D203819491E
:1030F0000860084600680001086008460068164934
:1031000008441449086008460068C0F307470846A9
:103110000088C0F30728084690F80090102002AB02
:103120004A4641460090384601F0F2F902AA31467B
:10313000504600F03FF8601CC4B206F10800C6B269
:1031400001E0601CC4B2285D00283FF755AF0EB007
:10315000BDE8F0876C00002080CF03002DE9F0412E
:1031600004460E46154602211148FDF76CFC042169
:103170000F48FDF76AFC4FF002080FE0E1B2F0B231
:1031800001F05FFD002704E0287803F0E7FF6D1CE5
:103190007F1C102FF8D3641CA8F10108B8F1000FB0
:1031A000ECD102210248FDF750FCBDE8F08100009F
:1031B000000C01402DE9F04104460E46154602215F
:1031C0000F48FDF740FC4FF002080FE0E1B2304637
:1031D00001F037FD002704E0287803F0BFFF6D1CE5
:1031E0007F1C082FF8D3641CA8F10108B8F1000F68
:1031F000ECD102210248FDF728FCBDE8F081000077
:10320000000C014038B5044664B120208DF8000060
:1032100028208DF8010030208DF8020038208DF82C
:10322000030004E0A32204216846FDF729F96A4659
:10323000042140F69E2003F021F802F00BFC38BD7B
:103240003EB5044602208DF80000CA208DF801002A
:10325000E3208DF8020009208DF803006A4604215E
:10326000682003F00BF8A3208DF8000004F0400064
:1032700048B1C0208DF80100C8208DF80200C2209E
:103280008DF8030006E0A3208DF801008DF8020000
:103290008DF8030004F4C07048B1C4208DF8040018
:1032A000CC208DF80500C6208DF8060006E0A3208E
:1032B0008DF804008DF805008DF80600A3208DF828
:1032C00007008DF808008DF809006A460A2140F6CB
:1032D000A72002F0D3FF04F0030018B120208DF8DE
:1032E000000002E0D8208DF800006A46012140F677
:1032F000B62002F0C3FF04F0200018B1012000F056
:10330000ADF802E0002000F0A9F804F4C07008B3A2
:1033100004F4807060B1B2208DF800008B208DF82D
:103320000100B6208DF802009B208DF803000BE011
:10333000B0208DF8000080208DF80100B4208DF8B9
:10334000020090208DF803006A46042140F6A22076
:1033500002F094FF04F0010020B3F8208DF8000083
:103360006A4601214FF40B6002F088FFFA21072022
:1033700000F02CFC072000F0F3FB012000F013FC10
:10338000642000F0F3FC4FF4FA7000F002FDC82155
:10339000304800F0A3FB282000F0BCFB0A2000F01E
:1033A000CCFB08E0D8208DF800006A4601214FF4DC
:1033B0000B6002F063FF04F0020018B1D9208DF811
:1033C000000002E0D8208DF800006A46012140F29A
:1033D0003D7002F053FF04F0040018B1012000F02A
:1033E00069F802E0002000F065F804F0100018B160
:1033F0000120FFF707FF02E00020FFF703FF44F082
:1034000008001549488102F025FB00201249887305
:1034100004F0400018B10846807B801D887304F4D6
:10342000C07020B10C48807B801D0B49887304F06C
:10343000140020B10848807B10300749887304F0DD
:10344000030020B10448807B001D034988730020DD
:103450003EBD000009E3CA02540200203EB5044606
:103460006CB10EA1D1E900208968CDE9002002915C
:103470006A4609214FF4976002F000FF3EBD0AA2A0
:10348000D2E900109268CDE9010200916A46092153
:103490004FF4976002F0F2FEF0E70000B8AAB38D97
:1034A000B4980D355D000000B8AAAAAAB088C3C5BB
:1034B000C700000038B5044664B1C0208DF8000094
:1034C000C2208DF80100C4208DF80200C6208DF8BE
:1034D000030004E08B2204216846FCF7D1FF6A4612
:1034E000042140F6982002F0C9FE02F0B3FA38BD7C
:1034F00010B5C8234FF48062024940F6F63002F05E
:103500003DF910BDB88600082DE9F04F8DB0074693
:10351000884615469946DDE9166B00240020308068
:103520006B49887B5A4605A902F0F4F918B1601E70
:103530000DB0BDE8F08F6648807A00F014000028D6
:1035400067D09DF8140000069DF8151040EA014070
:103550009DF8161040EA01209DF8171008432860D6
:103560009DF8180000069DF8191040EA01409DF8EA
:103570001A1040EA01209DF81B10084368609DF86E
:103580001C0000069DF81D1040EA01409DF81E1029
:1035900040EA01209DF81F100843A8609DF8200014
:1035A00000069DF8211040EA01409DF8221040EAF3
:1035B00001209DF823100843E86004F11000C4B214
:1035C000286800140190686800140290A86800142C
:1035D0000390E8680014049001984043029901FBAD
:1035E0000100039901FB0100049901FB010ABAF1F2
:1035F000706F02DBBAF1885F05DD02F02BFA002064
:103600003080401E94E7B6F9000040F480703080AE
:1036100000BF2F48807A00F0400020B305A9601C4D
:10362000085C095D40EA012000B2A8F8000005A985
:10363000E01C095C05AAA01C105C41EA002000B255
:10364000A8F8020005A9601D095C201D105C41EA74
:10365000002000B2A8F80400A01DC4B2B6F9000012
:1036600040F0080030801A48408900F4C07008B368
:1036700005A9601C085C095D40EA012000B23880A1
:1036800005A9E01C095C05AAA01C105C41EA002009
:1036900000B2788005A9601D095C201D105C41EA1C
:1036A000002000B2B880A01DC4B2B6F9000040F0FE
:1036B000700030800648807A00F0030018B105A938
:1036C0000819FFF7E3FB484601F01AFC00202FE73A
:1036D0005402002070B588B0064601A801F0A2FE91
:1036E000BDF804000021C90341EA5045C403444821
:1036F000007A00F0030056F8200005904048007A58
:1037000000F0040010B10598404205903C48007A52
:10371000C0F3C10056F8200006903948007A00F046
:10372000200010B10698404206903548007AC0F358
:10373000811056F8200007903148008900F480700D
:1037400010B10798404207900598C117A0FB0423C9
:1037500001FB043100FB0510810041EA92700590E5
:103760000698C117A0FB042301FB043100FB0510E0
:10377000810041EA927006900798C117A0FB0423CC
:1037800001FB043100FB0510810041EA92700790B3
:103790000598000E8DF808000598000C8DF80900BA
:1037A0000598000A8DF80A000598C0B28DF80B0044
:1037B0000698000E8DF80C000698000C8DF80D0090
:1037C0000698000A8DF80E000698C0B28DF80F001A
:1037D0000798000E8DF810000798000C8DF8110066
:1037E0000798000A8DF812000798C0B28DF81300F0
:1037F00002AA0C214FF4257002F040FD08B070BD04
:103800005402002030B585B0044616A207CA02ABA8
:1038100007C3C82C03DD4FF0FF3005B030BDC82012
:1038200090FBF4F0401E85B2280A8DF80000E8B243
:103830008DF801006A46022140F2162002F01EFDBA
:1038400010B14FF0FF30E8E702AA0C2140F6C1208A
:1038500002F014FD10B14FF0FF30DEE70448848120
:103860000020DAE7FEF2ABC4AAF1DFDFBBAFDFDF97
:10387000540200201FB504464848007A00F00300B7
:1038800054F8200001904548007A00F0040010B17F
:103890000198404201904148007AC0F3C10054F8B9
:1038A000200002903D48007A00F0200010B10298FC
:1038B000404202903948007AC0F3811054F8200049
:1038C00003903648008900F4807010B1039840429C
:1038D00003903349019880FB0101800F40EA810089
:1038E00001902F49029880FB0110820042EA9170FA
:1038F00002902B49039880FB0110820042EA9170EC
:1039000003900198000E8DF800000198000C8DF8CE
:1039100001000198000A8DF802000198C0B28DF8EC
:1039200003006A4604214FF4747002F0A7FC18B13A
:103930004FF0FF3004B010BD0298000E8DF800006B
:103940000298000C8DF801000298000A8DF8020020
:103950000298C0B28DF803006A4604214FF47570D6
:1039600002F08CFC10B14FF0FF30E3E70398000E3B
:103970008DF800000398000C8DF801000398000AF0
:103980008DF802000398C0B28DF803006A46042146
:103990004FF4767002F072FCCCE700005402002075
:1039A00009E3CA0210B586B0044647A00068039038
:1039B00046A00068029046A00068019045A00068FB
:1039C000009004F0030003A9085C8DF8140003A81C
:1039D000C4F3C101405C8DF8150003A8C4F3811144
:1039E000405C8DF8160004F0030002A9085C8DF815
:1039F000100002A8C4F3C101405C8DF8110002A8B8
:103A0000C4F38111405C8DF8120005AA032140F235
:103A1000264002F033FC18B14FF0FF3006B010BD65
:103A200004AA032140F22A4002F028FC10B14FF012
:103A3000FF30F3E7019805900098049004F004002B
:103A400058B19DF8140040F001008DF814009DF865
:103A5000100040F001008DF8100004F0200058B173
:103A60009DF8150040F001008DF815009DF811003B
:103A700040F001008DF8110004F4807058B19DF8F9
:103A8000160040F001008DF816009DF8120040F07D
:103A900001008DF8120005AA03214FF4886002F09E
:103AA000EDFB10B14FF0FF30B8E704AA032140F25C
:103AB000314002F0E3FB10B14FF0FF30AEE70648B3
:103AC00004810020AAE700004CCD6C000CC92C003A
:103AD000365676002646660054020020F8B50546A4
:103AE0000E464FF47A7095FBF0F000FB06F4200EC2
:103AF0008DF80000200C8DF80100200A8DF80200DE
:103B0000E0B28DF803006A4604214FF4AE7002F073
:103B1000B5FBF8BD38B50446052094FBF0F084B23F
:103B200020128DF80000E0B28DF801006A460221F3
:103B30004FF4AD7002F0A2FB38BD38B50446052045
:103B400094FBF0F084B220128DF80000E0B28DF802
:103B500001006A4602214FF4AC7002F08FFB38BDC1
:103B600038B504460020009004F0010020B19DF813
:103B7000000040F03000009004F0020020B19DF8F9
:103B8000000040F00C00009004F0040020B19DF80B
:103B9000000040F0030000906A4601214FF4A47039
:103BA00002F06CFB38BD38B50446012C01DA012463
:103BB00002E0042C00DD0424601EC0B200906A46BE
:103BC000012140F24F1002F059FB38BD2DE9FC47AE
:103BD00006460F4606F0070010B1B7F5C86F03DDC3
:103BE0004FF0FF30BDE8FC87384604F009FB814602
:103BF000594904F0BBF98046684601F0EDFB9DF899
:103C00000000022806D0042816D0082826D0102844
:103C100048D135E04FF08D41404604F039FB8146F4
:103C200004F0B6FA84B24D49404604F031FB8146B7
:103C300004F0AEFA85B238E04FF08C41404604F013
:103C400027FB814604F0A4FA84B24549404604F0BB
:103C50001FFB814604F09CFA85B226E04FF08B41B1
:103C6000404604F015FB814604F092FA84B23D49C7
:103C7000404604F00DFB814604F08AFA85B214E058
:103C80004FF08A41404604F003FB814604F080FA7D
:103C900084B23549404604F0FBFA814604F078FAD4
:103CA00085B202E04FF0FF309CE700BF20128DF894
:103CB0000400E0B28DF8050028128DF80600E8B285
:103CC0008DF8070006F00100A0B101AA02214FF40F
:103CD000EA7002F0D3FA10B14FF0FF3082E70DF135
:103CE000060202214FF4927002F0C8FA10B14FF0B0
:103CF000FF3077E706F00200A0B101AA02214FF4DD
:103D0000EC7002F0BBFA10B14FF0FF306AE70DF132
:103D1000060202214FF4947002F0B0FA10B14FF095
:103D2000FF305FE706F00400A0B101AA02214FF4C2
:103D3000EE7002F0A3FA10B14FF0FF3052E70DF130
:103D4000060202214FF4967002F098FA10B14FF07B
:103D5000FF3047E7002045E70000484300004046A9
:103D60000000C045000040450000C04438B504468E
:103D7000052094FBF0F085B228128DF80000E8B21F
:103D80008DF801006A4602214FF4EF7002F076FAD6
:103D900038BD38B50446052094FBF0F085B22812F2
:103DA0008DF80000E8B28DF801006A4602214FF458
:103DB000ED7002F063FA38BD2DE9F14F9AB00020A2
:103DC00019901890179016901590149013901290C7
:103DD000FD48FE490860FE4848604FF08240886018
:103DE000F948FC490860FA4848604FF08240886012
:103DF000F9491A9804F0BAF8804604F01DF806460E
:103E0000FEF7FCFD044603F061FA1790179804F0E2
:103E100013F8CDE9060102F03BFD82468B46EF49DF
:103E20001A9804F035FAEE49069004F031FA07903A
:103E300004F002F8064652465B4603F023FD0022DA
:103E4000E84BCDE9080103F02FFB804602F070FD3E
:103E5000044603F03BFA169007E2E34AE349E448DC
:103E600001F058F90028F7D1E249E048006804F071
:103E70000FFA8346E04904F079F8824603F0DCFF4C
:103E8000064602F07BFD04460022D64B03F0FAFC06
:103E9000CDE90001D749D548006804F0F9F9834617
:103EA000D54904F063F8824603F0C6FF064602F0E7
:103EB00065FD04460022CB4B03F0E4FC8046DDE9BF
:103EC000002303F0DFFCCDE90401CA49C8480068BB
:103ED00004F0DEF98346C84904F048F8824603F04E
:103EE000ABFF064602F04AFD04460022BD4B03F03C
:103EF000C9FC80468946BF49BD48006804F0C8F93E
:103F00008346BD4904F032F8824603F095FF064629
:103F100002F034FD04460022B24B03F0B3FC4246EB
:103F20004B46CDE9000103F0ADFCCDE90201DDE92E
:103F3000042303F0FDF9CDE9060102F0F9FCCDE917
:103F4000080103F0C3F919901999084604F0A0F983
:103F5000AA49089003F09CFF099003F06DFF80468A
:103F600002F0E6FC82468B469D49199804F090F9D0
:103F7000804603F061FF064652465B4603F094FA22
:103F8000044603F0A3F919909A499948006804F08F
:103F90007FF98346984903F0E9FF824603F04CFF1E
:103FA000064602F0EBFCCDE9040192498F48006817
:103FB00004F06EF98346904903F0D8FF824603F07F
:103FC0003BFF064602F0DAFCCDE90201DDE90423FD
:103FD00003F06AFACDE90601FEF710FD044600225F
:103FE000874B03F04FFC4FF0C042864BCDE90801F0
:103FF00003F05AFA804603F069F9189000211898E6
:1040000004F012F904D27C49189803F041FF18908B
:104010007849189804F03CF97749089003F0A6FF16
:10402000099003F009FF8246FEF7E2FE04460D46C2
:10403000199803F001FF064622462B4603F022FCA6
:1040400021F00041804603F041F96F490860694959
:10405000189804F01DF98346674903F087FF8246EC
:1040600003F0EAFECDE9080102F012FC06460F4615
:10407000199803F0E1FE804632463B4603F002FC0D
:1040800021F00041044603F021F960490860002155
:104090005748006804F0C8F805D25B48006880F013
:1040A00000405949086000215048006804F0BCF8FD
:1040B00005D25648006880F00040544908604D49D8
:1040C000189804F0E5F883464B4903F04FFF824609
:1040D00003F0B2FE804602F0DBFBCDE90801169842
:1040E00003F0AAFE0646DDE9082303F0CBFB21F02E
:1040F0000041044603F0EAF815903E49189804F090
:10410000C7F83D49089003F031FF099003F094FE91
:104110008246FEF76DFE06460F46169803F08CFEAB
:10412000804632463B4603F0ADFB21F00041044699
:1041300003F0CCF8149000212D48006804F074F9C5
:104140000AD200212948006804F06EF904D21598BB
:1041500080F00040159024E000212548006804F01C
:1041600063F80ED200212148006804F05DF908D2FE
:10417000159880F000401590149880F0004014903D
:104180000FE000211A48006804F04EF809D200211F
:104190001648006804F048F803D2149880F00040F4
:1041A00014901B48008870B9012019490880074AFB
:1041B000184801681598FDF72DF81390054A164820
:1041C000016814982AE032E00000D2431402002073
:1041D000CDCCCC3F340200200000B5420000754435
:1041E00000008F4200A056404C00002048000020F4
:1041F00044000020DB0F49400000344300F2FF453B
:1042000000806640FB210940540000205800002037
:10421000500000205C00002060000020FCF7FAFF46
:104220001290139800F0F8FE129800F018FF0F4952
:104230000F48006804F02CF80A900C490D480068FB
:1042400004F026F80B9019980C9018980D900A48D5
:1042500000680E90094800680F9015981090149807
:10426000119020210AA803F011F8F6E50000204182
:1042700044000020480000205C0000206000002076
:1042800042F22831012000F075FEC820FEF760FEE2
:104290002BE0164A1649174800F03CFF08BB1448AB
:1042A000006803F0C9FD21F0004104460022124BD2
:1042B00003F0ACFA16D200211048006804F0B4F8FC
:1042C00004D84FF47A61012000F01CFE00210B4855
:1042D000006803F0A9FF08D24FF47A61012000F0D2
:1042E00049FE02E0002000F0BAFED2E74C000020B8
:1042F0004800002044000020000014406800002016
:1043000090B00020079006900590049003900290D2
:1043100001900090274828490860284848604007D5
:10432000886024482649086024484860400788601F
:104330003EE0244A2449254800F0ECFE002837D10D
:1043400023480088B0B90120214908801A4A214831
:1043500001680598FCF75EFF0390194A1E48016842
:104360000498FCF757FF0290039800F055FE02985E
:1043700000F075FE19491548006803F089FF0890A0
:1043800016491148006803F083FF099007980A90C6
:1043900000200B900F4800680C900F4800680D90AB
:1043A00005980E9004980F90202108A802F06EFF47
:1043B000BFE700000000F143D40100209A99954125
:1043C000F40100204C0000204800002044000020A0
:1043D0005000002064000020680000200000204100
:1043E00000BF054A128802F04002002AF9D0C2B28A
:1043F000014B1B1D1A807047003801407CB50546F3
:1044000028494968087801AB04220D21FCF7E7FD33
:1044100008B107207CBD9DF80700C0F301109DF88E
:10442000041001F0E00140EAE1008DF800009DF881
:104430000700C0F381009DF8051001F0E00140EA9B
:10444000E1008DF801009DF8070000F003009DF8E1
:10445000061001F0E00140EAE1008DF802000024BE
:104460001CE01DF8040018B9002045F8240013E0F2
:104470000D4845F8240006E055F824000B4903F0E8
:1044800007FF45F824001DF80400401EC0B20DF8D7
:1044900004000028F0D100BF601CC4B2032CE0DB94
:1044A0000020B7E7700000207B14AE3E1D5A843F09
:1044B00070B5002420211548FCF7C7FA00BFFCF7AF
:1044C000D3F900251CE010211048FCF7BEFA00BF0C
:1044D00020210E48FCF7B7FA00BF6006040E102139
:1044E0000A48FCF7A7FA18B1601CC4B200BF00E08C
:1044F000E4B200BF20210548FCF7A7FA681CC5B24A
:10450000082DE0DBFCF79EF9204670BD0008014055
:104510002DE9F04780460D4616461F46DDF82090EF
:1045200004211348FCF78FFA02211148FCF78DFA99
:1045300020211048FCF787FA032002F03BF940469F
:1045400002F038F9284602F035F9304602F032F927
:10455000002404E0FFF7ACFF3855601CC4B24C45A2
:10456000F8DB04210248FCF770FABDE8F087000090
:10457000000C0140000801402DE9F04F87B00546CE
:104580000C46914601208DF8100000208DF8110096
:10459000FE4A1268917CFD4A5268107804AB0222F0
:1045A000FCF7C3FD20B14FF0FF3007B0BDE8F08F3E
:1045B000C820FEF7CDFC00208DF81000F34A1268E9
:1045C000D17BF24A5268107804AB0122FCF7ADFDB2
:1045D00010B14FF0FF30E8E7EC4A12685179EB4A2E
:1045E0005268107804AB0122FCF79FFD10B14FF028
:1045F000FF30DAE7E54A1268917CE44A52681078A5
:1046000004AB0122FCF791FD10B14FF0FF30CCE775
:10461000DE4A1268D17DDD4A5268107804AB01226F
:10462000FCF783FD10B14FF0FF30BEE7D74A1268A8
:104630001179D64A5268107804AB0122FCF775FD57
:1046400010B14FF0FF30B0E70C208DF81000CF4ACA
:1046500012681179CD4A5268107804AB0122FCF738
:1046600064FD10B14FF0FF309FE70F20FEF770FCA4
:10467000C648806A407A8DF81000C44A1268917862
:10468000C24A5268107804AB0122FCF74EFD10B10B
:104690004FF0FF3089E7BD48806A007A8DF810003E
:1046A000BA4A12685178B94A5268107804AB0122AC
:1046B000FCF73BFD10B14FF0FF3076E7B9F1000F8A
:1046C00007D0B248806A807A40F0E0008DF8100090
:1046D00004E0AE48806A807A8DF81000AB4A126818
:1046E0009179AA4A5268107804AB0122FCF71DFDAB
:1046F00010B14FF0FF3058E7B9F1000F07D0A348D1
:10470000806AC07A40F0E0008DF8100003E0A04815
:10471000C07A8DF810009D4A1268D1799B4A526880
:10472000107804AB0122FCF700FD10B14FF0FF3010
:104730003BE7B9F1000F02D0C820FEF709FC40208A
:104740008DF81000914A12681179904A52681078D9
:1047500004AB0122FCF7E9FC10B14FF0FF3024E775
:1047600078208DF81000894A12685179874A52687A
:10477000107804AB0122FCF7D8FC10B14FF0FF30E9
:1047800013E783498889FEF7E3FB00208DF81000CA
:104790007E4A126851797D4A5268107804AB012232
:1047A000FCF7C3FC10B14FF0FF30FEE6774A126809
:1047B000917A764A5268107804AB0222FCF70FFC1B
:1047C00010B14FF0FF30F0E69DF811009DF8101089
:1047D00040EA012B0C209BFBF0F0C6B20020A86041
:1047E00068602860A06060602060824665E0674A7B
:1047F0001268D17A654A5268107804AB0C22FCF733
:10480000EEFB10B14FF0FF30CFE69DF811009DF8A0
:10481000101040EA012000B2ADF808009DF8130026
:104820009DF8121040EA012000B2ADF80A009DF890
:1048300015009DF8141040EA012000B2ADF80C00FC
:10484000BDF90810206808442060BDF90A106068AE
:1048500008446060BDF90C10A0680844A0609DF891
:1048600017009DF8161040EA012000B2ADF80000D4
:104870009DF819009DF8181040EA012000B2ADF82B
:1048800002009DF81B009DF81A1040EA012000B2BA
:10489000ADF80400BDF90010286808442860BDF98F
:1048A0000210686808446860BDF90410A8680844EC
:1048B000A8600AF1010000F0FF0AB24597DB344816
:1048C000D0F800C02868C117090441EA1041070464
:1048D000624600233846FBF79EFC32460023CDE9B2
:1048E0000201FBF798FC28602948D0F800C06868EE
:1048F000C117090441EA1041070462460023384603
:10490000FBF789FC32460023CDE90201FBF783FC6B
:1049100068601F48D0F800C0A868C117090441EAC0
:1049200010410704624600233846FBF774FC324608
:104930000023CDE90201FBF76EFCA8601448D0F813
:1049400004C02168C817000440EA11480F046246F9
:10495000002338464146FBF75EFC32460023CDE992
:104960000201FBF758FC20600948D0F804C06068D9
:10497000C117090441EA1041070462460023384682
:10498000FBF749FC3246002304E0000070000020E1
:1049900090860008CDE90201FBF73DFC60601148FC
:1049A000D0F804C0A068C117090441EA1041070407
:1049B000624600233846FBF72EFC32460023CDE941
:1049C0000201FBF728FCA060A068002804DDA068B5
:1049D000A0F58030A06003E0A06800F58030A06002
:1049E0000020E2E5908600082DE9FC5F06460F46B0
:1049F00000253D494968087801AB03220D21FCF7E9
:104A0000EEFA10B10720BDE8FC9F9DF8040000F00D
:104A10001F008DF804009DF8050000F01F008DF8C0
:104A200005009DF8060000F01F008DF80600002428
:104A300056E056F8240057F82410A0EB010BBBF108
:104A4000000F01DB594601E0CBF10001084603F0FD
:104A5000BFFB4FF08F41009003F088FA814601A818
:104A6000005D68B32149086803F0CAFB83465946D4
:104A70001F4803F07BFA804604E01E49404603F0DD
:104A800007FC804601A8005D401EC0B201A9085580
:104A90000028F2D14146484603F068FA83464FF0B9
:104AA0007E5103F0F3FC82462AF0004B0F488169E7
:104AB000584603F0B9FC12D20120A04005430EE095
:104AC0000A480169484603F0AFFB05D3074841692E
:104AD000484603F0A9FC02D20120A0400543641C13
:104AE000032CA6DB28468EE7700000209086000885
:104AF00000B04C4554E3853F10B54FF4C870FEF745
:104B0000F7F9FBF753FE02212F48FBF79CFF042126
:104B10002D48FBF79AFFAE2002F0ECFA202002F0BD
:104B2000E9FA102002F0E6FAB02002F0E3FAC82019
:104B300002F0E0FA002002F0DDFA102002F0DAFACA
:104B4000402002F0D7FA812002F0D4FAFF2002F0D0
:104B5000D1FAA12002F0CEFAA62002F0CBFAA820CA
:104B600002F0C8FA3F2002F0C5FAA42002F0C2FA0F
:104B7000D32002F0BFFA002002F0BCFAD52002F0E8
:104B8000B9FAF02002F0B6FAD92002F0B3FA2220E6
:104B900002F0B0FADA2002F0ADFA122002F0AAFA1E
:104BA000DB2002F0A7FA202002F0A4FA8D2002F008
:104BB000A1FA142002F09EFAAF2002F09BFA022123
:104BC0000148FBF742FF10BD000C014010B5044640
:104BD000204600F00FF80346E01C00F00BF843EA13
:104BE000C00083B2A01D00F005F843EA801083B234
:104BF000184610BD014691F90020002A01DD002071
:104C00001EE091F90020002A01DA042018E091F951
:104C10000120002A01DD012012E091F90120002A83
:104C200001DA05200CE091F90220002A01DD0220C2
:104C300006E091F90220002A01DA062000E00720B0
:104C4000704770B504460D4605F1B00002F052FA07
:104C5000102141EA141002F04DFA04F00F0002F0A6
:104C600049FA70BD8AB0002009900890059006901E
:104C700007900490039002900190FBF7C3FF4FF45C
:104C8000E13002F09FFAFEF741F94FF4A060FCF723
:104C9000B7FA00F0A7F9472142F20F70FCF76AFC5F
:104CA00040F2CF2140F2CF70FCF776FD00210120C9
:104CB00000F028F90021012000F05CF9002101201A
:104CC00000F03CF90021012000F070F9FFF714FF1B
:104CD000FCF708F907E0C820FEF73AF963A248217B
:104CE0000020FEF781F900F027FB0028F3D1FEF742
:104CF00055F860A201210020FEF776F95FA2482155
:104D00000020FEF771F983E0FBF7A6FE09900998F1
:104D10000A2807DD09980A38089059480068401E9B
:104D200057490860089806284CD2DFE800F04B038A
:104D3000091E303653A201210220FEF755F941E049
:104D400053A201210220FEF74FF954A201210420B1
:104D5000FEF74AF95449019803F008F904905421E8
:104D60000420049A01F010FB2CE050A20121022043
:104D7000FEF73AF950A201210420FEF735F9019817
:104D8000039054210420039A01F0B8FA1AE04DA2CE
:104D900001210220FEF728F914E04DA20121022092
:104DA000FEF722F94DA201210420FEF71DF93E492C
:104DB000019803F0DBF8029054210420029A01F0DC
:104DC0001FFB00BF00BF099800281DDB09980A28B7
:104DD0001ADA099803F0FCF929490968491E05AA5D
:104DE00042F821003049069803F052FA05463E4940
:104DF000059803F04DFA0646294603F049F80446A3
:104E0000079903F045F8019009980A2800D100E0BD
:104E10007AE700BF35A201210620FEF7E5F824E07D
:104E200035A00899FBF71CFA01E0FFF729FA08986A
:104E30000128FAD002E0049801F060FB08980228EB
:104E4000F9D002E0039801F0CBFD08980328F9D0CF
:104E500001E0FFF755FA08980428FAD002E002981A
:104E6000FEF7AAFF08980528F9D0D9E76572726F96
:104E700072000000B7E7C1A6B0DA00004F4B000097
:104E8000A8000020C4A3CABDD2BB3AD6B1CFDF0070
:104E9000C4A3CABDB6FE3AD6B1CFDF00C9E8D6C3B7
:104EA000B3A4B6C83A00000000002041C4A3CABDA4
:104EB000C8FD3AD0B1CFDF00C9E8D6C3BDC7B6C878
:104EC0003A000000C4A3CABDCBC43AD6C6B6AF00F0
:104ED000C4A3CABDCEE53ABBADD4B200C9E8D6C3BF
:104EE000B0EBBEB63A0000000000C842C9E8D6C325
:104EF000CDEAB1CF000000002564202000000000B2
:104F00007047000070B504460D4644B900200A49B8
:104F1000086029464FF08040FCF7F3FD0AE00120CD
:104F20000549086042F21070401B81B24FF080408A
:104F3000FCF7E7FD70BD00008001224270B5044619
:104F40000D4644B900200A49086029464FF08040C8
:104F5000FCF7D9FD0AE001200549086042F2107013
:104F6000401B81B24FF08040FCF7CDFD70BD0000CA
:104F70008401224270B504460D4644B900200A4916
:104F8000086029464FF08040FCF7BFFD0AE0012091
:104F90000549086042F21070401B81B24FF080401A
:104FA000FCF7B3FD70BD00008801224270B50446D5
:104FB0000D4644B900200A49086029464FF0804058
:104FC000FCF7A5FD0AE001200549086042F21070D7
:104FD000401B81B24FF08040FCF799FD70BD00008E
:104FE0008C01224208B501211020FCF78DF90F2019
:104FF000ADF8000010208DF8030003208DF80200AA
:1050000069460448FBF742FC0F210248FBF71BFDF1
:1050100008BD00000010014070B504460021204684
:1050200003F002FA0CD8204603F0B2F885B2294604
:105030000120FFF783FF00210120FFF7B7FF0DE0FC
:1050400000210120FFF77AFF84F00046304603F08C
:105050009FF885B229460120FFF7A8FF70BD70B503
:1050600004460021204603F0DFF90CD8204603F067
:105070008FF885B229460120FFF744FF0021012067
:10508000FFF778FF0DE000210120FFF73BFF84F0E0
:105090000046304603F07CF885B229460120FFF730
:1050A00069FF70BD70B50446002624F0010418485D
:1050B00090F8240008B1002070BD1548807A10B91E
:1050C0004FF0FF30F8E71248057C807A2040104905
:1050D00008740846007CA04202D04FF0FF3600E082
:1050E000002614B90A48007D18B1012001F088FBA0
:1050F00002E0002001F084FB3CB100F0ABFC20B1E9
:10510000034805744FF0FF30D6E73046D4E700007F
:10511000700000202DE9F04F99B004460D46164668
:105120004FF07E574FF000084FF000094FF0000A93
:1051300012A813A918AB0EAACDE9001014A916A83D
:10514000FEF7E2F918B1012019B0BDE8F08FBDF803
:105150004C0000F4807000287ED00E9803F038F8E0
:1051600083464FF09D4102F001FF07460F9803F080
:105170002FF883464FF09D4102F0F8FE80461098CC
:1051800003F026F883464FF09D4102F0EFFE814682
:10519000119803F01DF883464FF09D4102F0E6FEA2
:1051A000824639464FF0804003F072F84946059038
:1051B00003F06EF8414607904FF0404003F068F866
:1051C0005146059003F064F80690079902F060FEDE
:1051D000834602F031FECDE90801FDF7D7FA4FF022
:1051E0006632544BCDE90A0102F04CFBCDE90C01CB
:1051F00002F06CF8206049464FF0804003F048F818
:105200004946029003F044F8414604904FF0404074
:1052100003F03EF84146029003F03AF803900499F7
:1052200003F034F983464FF07E5102F031FE0590D1
:1052300002F002FECDE9080139464FF0804003F04C
:1052400027F84146039003F023F8494604904FF0B5
:10525000804003F01DF800E068E05146039003F041
:1052600017F88346049902F013FE059002F0E4FD5E
:10527000CDE90601DDE90823FDF7D0FC4FF06632E9
:105280002C4BCDE90A0102F0FDFACDE90C0102F048
:105290001DF828605146504602F0FAFF4946049036
:1052A000484602F0F5FF41460390404602F0F0FF09
:1052B00039460190384602F0EBFF0090019902F068
:1052C000E7FD0290039903F0E1F88346049903F0A7
:1052D000DDF8059002F0B0FDCDE9080151463846F1
:1052E00002F0D6FF49460490404602F0D1FF0390F9
:1052F000049902F0CDFD4FF08041059002F0C8FF07
:10530000834602F099FDCDE90601DDE90823FDF7AA
:1053100085FC4FF06632074BCDE90A0102F0B2FA84
:10532000CDE90C0101F0D2FF306001E002200BE773
:10533000002009E766A64C4070B50024FBF7B2FCDC
:1053400000F024F9002840D1782000F02FFFC4B2EB
:105350000CB1012070BD7820FFF7A4FEC4B20CB1DF
:105360000220F7E7642000F0D3FEC4B20CB10320A2
:10537000F0E7FEF7BDF8C4B20CB10420EAE7154827
:10538000FFF724FC0546FEF70DFBC4B20CB1052067
:10539000E0E740F27310FDF753FFC4B20CB10620F2
:1053A000D8E76420FEF72EFAC4B20CB10720D1E78B
:1053B00001F05AF804460CB10820CBE7012000F0B8
:1053C000A3FDC4B21CB10920C4E70A20C2E7002033
:1053D000C0E700009C00002001461148407A30B12F
:1053E000012807D0022808D003280CD108E00220A9
:1053F00008700BE00420087008E00820087005E041
:105400001020087002E04FF0FF30704700BF0448E2
:10541000C07C18B108784006000E08700020F4E740
:105420007000002001461348407A30B1012808D0AE
:1054300002280AD0032810D10BE04FF480400880E6
:105440000EE041F69C7008800AE04FF4805008801E
:1054500006E04FF40060088002E04FF0FF30704734
:1054600000BF0448C07C10B10888401008800020AC
:10547000F5E700007000002001460248007C08703B
:10548000002070477000002001460F48007A30B1BC
:10549000012807D0022809D003280FD10AE0FA20FA
:1054A00008800EE04FF4FA7008800AE04FF47A703A
:1054B000088006E04FF4FA60088002E000200880CF
:1054C00000BF00BF002070477000002001460E485A
:1054D000007A30B1012807D0022808D003280CD167
:1054E00008E00A4808600BE00948086008E009483D
:1054F000086005E00848086002E04FF0FF307047A0
:1055000000BF0020FBE70000700000200000034304
:105510000000834233330342333383410146124850
:10552000C07A082817D2DFE800F01704070A0D1028
:105530001318BC20088013E06220088010E02A20A5
:1055400008800DE0142008800AE00A20088007E0A7
:105550000520088004E000BF00BF0020088000BFD5
:1055600000BF002070470000700000200146064880
:1055700090F8240010B14FF0FF3070470248C08906
:1055800008800020F9E70000700000201CB5802092
:105590008DF80000654A1268917C644A5268107860
:1055A0006B460122FBF7C1FD10B14FF0FF301CBD6F
:1055B0006420FDF7CDFC00208DF800005B4A1268E6
:1055C000917C5A4A526810786B460122FBF7ADFD78
:1055D00010B14FF0FF30EAE7544A1268917D534A08
:1055E000526810786B460622FBF7F9FC10B14FF0B9
:1055F000FF30DCE79DF80500C007400F9DF8031061
:1056000001F0010140EA41009DF8011001F00101A3
:1056100040EA010494B1012C03D101214348C17433
:1056200031E0022C03D100214048C1742BE0214617
:105630003FA0FAF715FE4FF0FF30B8E73B4A12687B
:10564000D1783A4A526810786B460122FBF7C7FCC2
:1056500010B14FF0FF30AAE79DF8000000F00F04F2
:105660002CB93D48FAF7FCFD4FF0FF309FE7042CC2
:1056700006D13AA0FAF7F4FD01212C48C17402E0EA
:1056800000212A48C174FF2128488172FF20274940
:105690000872FF2125484172C1724FF6FF71C18126
:1056A000FF21017481740121017380F8221000210F
:1056B00080F82310417501751630016041608160EA
:1056C000163880F8241080F82510C1844FF4FA6051
:1056D00000F062FC10B14FF0FF3068E7022000F0EC
:1056E0002BFB10B14FF0FF3061E72A2000F0CEFC19
:1056F00010B14FF0FF305AE7322000F009FD10B131
:105700004FF0FF3053E70020FFF7CCFC10B14FF013
:10571000FF304CE7002000F051FB10B14FF0FF309C
:1057200045E7002000F042FD002040E77000002027
:10573000556E737570706F7274656420736F6674E4
:10574000776172652070726F64756374207265761C
:105750002025642E0A0000003095000848616C6620
:105760002073656E736974697669747920706172EB
:105770007420666F756E642E0A0000002DE9F043F8
:1057800085B005460E4690469946294890F8250072
:1057900020B14FF0FF3005B0BDE8F08316B94FF0EF
:1057A000FF30F8E7002423E0281B102801DD10203B
:1057B00000E0281B87B232193946204600F05EFD12
:1057C00010B14FF0FF30E6E701AA3946204600F05D
:1057D00001F910B14FF0FF30DDE730193A4601A969
:1057E000FAF722FE10B16FF00100D4E7E01984B29D
:1057F000AC42D9DB4FEA28208DF8000008F0FF000A
:105800008DF801000A4A1268917E094A52681078A0
:105810006B460222FBF789FC10B14FF0FF30BAE76C
:105820000121034880F82510A0F826900020B2E757
:105830007000002038B50446282C02DD4FF0FF3000
:1058400038BDDCB9002000F0EBFB00208DF8000033
:1058500007208DF801002E4A1268917C2C4A52686C
:1058600010786B460222FBF760FC10B14FF0FF305E
:10587000E6E70021264801750020E1E7012000F05D
:10588000CFFB20208DF80000012C06D100208DF8E0
:105890000100052000F0FAFB17E0052C06DC0120D2
:1058A0008DF80100052000F0F1FB0EE0142C06DC61
:1058B00002208DF801000A2000F0E8FB05E003203B
:1058C0008DF80100142000F0E1FB9DF80100072194
:1058D00001EB8010C0B28DF801000D4A1268917C76
:1058E0000B4A526810786B460222FBF71EFC10B17F
:1058F0004FF0FF30A4E708210548817200210173B1
:10590000012101750020FFF7CDFB002098E7000082
:1059100070000020F8B504460F4616462C4890F853
:10592000240010B94FF0FF30F8BD2948807A10B933
:105930004FF0FF30F8E7264A1268917A244A5268FD
:1059400010786B460222FBF74AFB10B14FF0FF3094
:10595000EAE79DF801009DF8001040EA0125A54204
:1059600003DA00203070401EDEE7194840684088A6
:10597000B5EB600F17DD164A1268517C144A526865
:1059800010786B460122FBF72AFB10B14FF0FF3075
:10599000CAE79DF8000000F0100020B100F05AF8AE
:1059A0006FF00100C0E7E2B2094B1B68D97A084BDF
:1059B0005B6818783B46FBF712FB10B14FF0FF30E5
:1059C000B2E795FBF4F0401E30700020ACE7000019
:1059D00070000020F8B504460D46164616B94FF083
:1059E000FF30F8BD1A48807A10B94FF0FF30F8E761
:1059F00020128DF80000E0B28DF801009DF8010042
:105A00002844134949684989884202DD4FF0FF3034
:105A1000E7E70F4A1268117E0D4A526810786B460C
:105A20000222FBF782FB10B14FF0FF30D9E7EAB258
:105A3000074B1B68597D064B5B6818783346FBF7AC
:105A4000CEFA10B14FF0FF30CBE70020C9E70000DD
:105A50007000002008B57048807A10B94FF0FF3010
:105A600008BD002000906C4A1268D17B6A4A5268D7
:105A700010786B460122FBF758FB10B14FF0FF3056
:105A8000EEE7654A12685179634A526810786B46AE
:105A90000122FBF74AFB10B14FF0FF30E0E75E4A0E
:105AA000126811795C4A526810786B460122FBF744
:105AB0003CFB10B14FF0FF30D2E7574890F824007C
:105AC000002853D00C200090534A12681179524A92
:105AD000526810786B460122FBF727FB10B14FF09C
